{
  "_format": "hh-sol-artifact-1",
  "contractName": "DNFT",
  "sourceName": "contracts/nft.sol",
  "abi": [
    {
      "inputs": [],
      "stateMutability": "nonpayable",
      "type": "constructor"
    },
    {
      "inputs": [
        {
          "internalType": "address",
          "name": "sender",
          "type": "address"
        },
        {
          "internalType": "uint256",
          "name": "tokenId",
          "type": "uint256"
        },
        {
          "internalType": "address",
          "name": "owner",
          "type": "address"
        }
      ],
      "name": "ERC721IncorrectOwner",
      "type": "error"
    },
    {
      "inputs": [
        {
          "internalType": "address",
          "name": "operator",
          "type": "address"
        },
        {
          "internalType": "uint256",
          "name": "tokenId",
          "type": "uint256"
        }
      ],
      "name": "ERC721InsufficientApproval",
      "type": "error"
    },
    {
      "inputs": [
        {
          "internalType": "address",
          "name": "approver",
          "type": "address"
        }
      ],
      "name": "ERC721InvalidApprover",
      "type": "error"
    },
    {
      "inputs": [
        {
          "internalType": "address",
          "name": "operator",
          "type": "address"
        }
      ],
      "name": "ERC721InvalidOperator",
      "type": "error"
    },
    {
      "inputs": [
        {
          "internalType": "address",
          "name": "owner",
          "type": "address"
        }
      ],
      "name": "ERC721InvalidOwner",
      "type": "error"
    },
    {
      "inputs": [
        {
          "internalType": "address",
          "name": "receiver",
          "type": "address"
        }
      ],
      "name": "ERC721InvalidReceiver",
      "type": "error"
    },
    {
      "inputs": [
        {
          "internalType": "address",
          "name": "sender",
          "type": "address"
        }
      ],
      "name": "ERC721InvalidSender",
      "type": "error"
    },
    {
      "inputs": [
        {
          "internalType": "uint256",
          "name": "tokenId",
          "type": "uint256"
        }
      ],
      "name": "ERC721NonexistentToken",
      "type": "error"
    },
    {
      "inputs": [
        {
          "internalType": "address",
          "name": "owner",
          "type": "address"
        }
      ],
      "name": "OwnableInvalidOwner",
      "type": "error"
    },
    {
      "inputs": [
        {
          "internalType": "address",
          "name": "account",
          "type": "address"
        }
      ],
      "name": "OwnableUnauthorizedAccount",
      "type": "error"
    },
    {
      "anonymous": false,
      "inputs": [
        {
          "indexed": true,
          "internalType": "address",
          "name": "owner",
          "type": "address"
        },
        {
          "indexed": true,
          "internalType": "address",
          "name": "approved",
          "type": "address"
        },
        {
          "indexed": true,
          "internalType": "uint256",
          "name": "tokenId",
          "type": "uint256"
        }
      ],
      "name": "Approval",
      "type": "event"
    },
    {
      "anonymous": false,
      "inputs": [
        {
          "indexed": true,
          "internalType": "address",
          "name": "owner",
          "type": "address"
        },
        {
          "indexed": true,
          "internalType": "address",
          "name": "operator",
          "type": "address"
        },
        {
          "indexed": false,
          "internalType": "bool",
          "name": "approved",
          "type": "bool"
        }
      ],
      "name": "ApprovalForAll",
      "type": "event"
    },
    {
      "anonymous": false,
      "inputs": [
        {
          "indexed": false,
          "internalType": "uint256",
          "name": "_fromTokenId",
          "type": "uint256"
        },
        {
          "indexed": false,
          "internalType": "uint256",
          "name": "_toTokenId",
          "type": "uint256"
        }
      ],
      "name": "BatchMetadataUpdate",
      "type": "event"
    },
    {
      "anonymous": false,
      "inputs": [
        {
          "indexed": false,
          "internalType": "uint256",
          "name": "_tokenId",
          "type": "uint256"
        }
      ],
      "name": "MetadataUpdate",
      "type": "event"
    },
    {
      "anonymous": false,
      "inputs": [
        {
          "indexed": true,
          "internalType": "address",
          "name": "previousOwner",
          "type": "address"
        },
        {
          "indexed": true,
          "internalType": "address",
          "name": "newOwner",
          "type": "address"
        }
      ],
      "name": "OwnershipTransferred",
      "type": "event"
    },
    {
      "anonymous": false,
      "inputs": [
        {
          "indexed": true,
          "internalType": "address",
          "name": "from",
          "type": "address"
        },
        {
          "indexed": true,
          "internalType": "address",
          "name": "to",
          "type": "address"
        },
        {
          "indexed": true,
          "internalType": "uint256",
          "name": "tokenId",
          "type": "uint256"
        }
      ],
      "name": "Transfer",
      "type": "event"
    },
    {
      "anonymous": false,
      "inputs": [
        {
          "indexed": true,
          "internalType": "address",
          "name": "user",
          "type": "address"
        },
        {
          "indexed": false,
          "internalType": "uint256",
          "name": "rewardAmount",
          "type": "uint256"
        }
      ],
      "name": "UserRewarded",
      "type": "event"
    },
    {
      "inputs": [
        {
          "internalType": "address",
          "name": "to",
          "type": "address"
        },
        {
          "internalType": "uint256",
          "name": "tokenId",
          "type": "uint256"
        }
      ],
      "name": "approve",
      "outputs": [],
      "stateMutability": "nonpayable",
      "type": "function"
    },
    {
      "inputs": [
        {
          "internalType": "address",
          "name": "owner",
          "type": "address"
        }
      ],
      "name": "balanceOf",
      "outputs": [
        {
          "internalType": "uint256",
          "name": "",
          "type": "uint256"
        }
      ],
      "stateMutability": "view",
      "type": "function"
    },
    {
      "inputs": [
        {
          "internalType": "string",
          "name": "tokenURI",
          "type": "string"
        }
      ],
      "name": "checkTokenExists",
      "outputs": [
        {
          "internalType": "bool",
          "name": "",
          "type": "bool"
        }
      ],
      "stateMutability": "view",
      "type": "function"
    },
    {
      "inputs": [],
      "name": "depositETH",
      "outputs": [],
      "stateMutability": "payable",
      "type": "function"
    },
    {
      "inputs": [
        {
          "internalType": "uint256",
          "name": "tokenId",
          "type": "uint256"
        }
      ],
      "name": "getApproved",
      "outputs": [
        {
          "internalType": "address",
          "name": "",
          "type": "address"
        }
      ],
      "stateMutability": "view",
      "type": "function"
    },
    {
      "inputs": [
        {
          "internalType": "address",
          "name": "user",
          "type": "address"
        }
      ],
      "name": "getMintedTokens",
      "outputs": [
        {
          "internalType": "uint256[]",
          "name": "",
          "type": "uint256[]"
        }
      ],
      "stateMutability": "view",
      "type": "function"
    },
    {
      "inputs": [
        {
          "internalType": "address",
          "name": "owner",
          "type": "address"
        },
        {
          "internalType": "address",
          "name": "operator",
          "type": "address"
        }
      ],
      "name": "isApprovedForAll",
      "outputs": [
        {
          "internalType": "bool",
          "name": "",
          "type": "bool"
        }
      ],
      "stateMutability": "view",
      "type": "function"
    },
    {
      "inputs": [
        {
          "internalType": "address",
          "name": "collector",
          "type": "address"
        },
        {
          "internalType": "string",
          "name": "metadataURI",
          "type": "string"
        }
      ],
      "name": "mintCollectionNFT",
      "outputs": [],
      "stateMutability": "nonpayable",
      "type": "function"
    },
    {
      "inputs": [
        {
          "internalType": "address",
          "name": "recipient",
          "type": "address"
        },
        {
          "internalType": "string",
          "name": "tokenURI",
          "type": "string"
        }
      ],
      "name": "mintNFT",
      "outputs": [
        {
          "internalType": "uint256",
          "name": "",
          "type": "uint256"
        }
      ],
      "stateMutability": "nonpayable",
      "type": "function"
    },
    {
      "inputs": [],
      "name": "name",
      "outputs": [
        {
          "internalType": "string",
          "name": "",
          "type": "string"
        }
      ],
      "stateMutability": "view",
      "type": "function"
    },
    {
      "inputs": [],
      "name": "owner",
      "outputs": [
        {
          "internalType": "address",
          "name": "",
          "type": "address"
        }
      ],
      "stateMutability": "view",
      "type": "function"
    },
    {
      "inputs": [
        {
          "internalType": "uint256",
          "name": "tokenId",
          "type": "uint256"
        }
      ],
      "name": "ownerOf",
      "outputs": [
        {
          "internalType": "address",
          "name": "",
          "type": "address"
        }
      ],
      "stateMutability": "view",
      "type": "function"
    },
    {
      "inputs": [],
      "name": "renounceOwnership",
      "outputs": [],
      "stateMutability": "nonpayable",
      "type": "function"
    },
    {
      "inputs": [
        {
          "internalType": "address",
          "name": "from",
          "type": "address"
        },
        {
          "internalType": "address",
          "name": "to",
          "type": "address"
        },
        {
          "internalType": "uint256",
          "name": "tokenId",
          "type": "uint256"
        }
      ],
      "name": "safeTransferFrom",
      "outputs": [],
      "stateMutability": "nonpayable",
      "type": "function"
    },
    {
      "inputs": [
        {
          "internalType": "address",
          "name": "from",
          "type": "address"
        },
        {
          "internalType": "address",
          "name": "to",
          "type": "address"
        },
        {
          "internalType": "uint256",
          "name": "tokenId",
          "type": "uint256"
        },
        {
          "internalType": "bytes",
          "name": "data",
          "type": "bytes"
        }
      ],
      "name": "safeTransferFrom",
      "outputs": [],
      "stateMutability": "nonpayable",
      "type": "function"
    },
    {
      "inputs": [
        {
          "internalType": "address",
          "name": "operator",
          "type": "address"
        },
        {
          "internalType": "bool",
          "name": "approved",
          "type": "bool"
        }
      ],
      "name": "setApprovalForAll",
      "outputs": [],
      "stateMutability": "nonpayable",
      "type": "function"
    },
    {
      "inputs": [
        {
          "internalType": "bytes4",
          "name": "interfaceId",
          "type": "bytes4"
        }
      ],
      "name": "supportsInterface",
      "outputs": [
        {
          "internalType": "bool",
          "name": "",
          "type": "bool"
        }
      ],
      "stateMutability": "view",
      "type": "function"
    },
    {
      "inputs": [],
      "name": "symbol",
      "outputs": [
        {
          "internalType": "string",
          "name": "",
          "type": "string"
        }
      ],
      "stateMutability": "view",
      "type": "function"
    },
    {
      "inputs": [
        {
          "internalType": "uint256",
          "name": "tokenId",
          "type": "uint256"
        }
      ],
      "name": "tokenURI",
      "outputs": [
        {
          "internalType": "string",
          "name": "",
          "type": "string"
        }
      ],
      "stateMutability": "view",
      "type": "function"
    },
    {
      "inputs": [
        {
          "internalType": "address",
          "name": "user",
          "type": "address"
        }
      ],
      "name": "totalRewards",
      "outputs": [
        {
          "internalType": "uint256",
          "name": "",
          "type": "uint256"
        }
      ],
      "stateMutability": "view",
      "type": "function"
    },
    {
      "inputs": [
        {
          "internalType": "address",
          "name": "from",
          "type": "address"
        },
        {
          "internalType": "address",
          "name": "to",
          "type": "address"
        },
        {
          "internalType": "uint256",
          "name": "tokenId",
          "type": "uint256"
        }
      ],
      "name": "transferFrom",
      "outputs": [],
      "stateMutability": "nonpayable",
      "type": "function"
    },
    {
      "inputs": [
        {
          "internalType": "address",
          "name": "newOwner",
          "type": "address"
        }
      ],
      "name": "transferOwnership",
      "outputs": [],
      "stateMutability": "nonpayable",
      "type": "function"
    },
    {
      "inputs": [],
      "name": "withdrawETH",
      "outputs": [],
      "stateMutability": "nonpayable",
      "type": "function"
    }
  ],
  "bytecode": "0x60806040523480156200001157600080fd5b50336040518060400160405280600481526020017f444e4654000000000000000000000000000000000000000000000000000000008152506040518060400160405280600481526020017f444e4654000000000000000000000000000000000000000000000000000000008152508160009081620000909190620004cd565b508060019081620000a29190620004cd565b505050600073ffffffffffffffffffffffffffffffffffffffff168173ffffffffffffffffffffffffffffffffffffffff16036200011a5760006040517f1e4fbdf7000000000000000000000000000000000000000000000000000000008152600401620001119190620005f9565b60405180910390fd5b6200012b816200017860201b60201c565b50620001726040518060400160405280600781526020017f697066733a2f2f000000000000000000000000000000000000000000000000008152506200023e60201b60201c565b62000616565b6000600760009054906101000a900473ffffffffffffffffffffffffffffffffffffffff16905081600760006101000a81548173ffffffffffffffffffffffffffffffffffffffff021916908373ffffffffffffffffffffffffffffffffffffffff1602179055508173ffffffffffffffffffffffffffffffffffffffff168173ffffffffffffffffffffffffffffffffffffffff167f8be0079c531659141344cd1fd0a4f28419497f9722a3daafe3b4186f6b6457e060405160405180910390a35050565b80600990816200024f9190620004cd565b5050565b600081519050919050565b7f4e487b7100000000000000000000000000000000000000000000000000000000600052604160045260246000fd5b7f4e487b7100000000000000000000000000000000000000000000000000000000600052602260045260246000fd5b60006002820490506001821680620002d557607f821691505b602082108103620002eb57620002ea6200028d565b5b50919050565b60008190508160005260206000209050919050565b60006020601f8301049050919050565b600082821b905092915050565b600060088302620003557fffffffffffffffffffffffffffffffffffffffffffffffffffffffffffffffff8262000316565b62000361868362000316565b95508019841693508086168417925050509392505050565b6000819050919050565b6000819050919050565b6000620003ae620003a8620003a28462000379565b62000383565b62000379565b9050919050565b6000819050919050565b620003ca836200038d565b620003e2620003d982620003b5565b84845462000323565b825550505050565b600090565b620003f9620003ea565b62000406818484620003bf565b505050565b5b818110156200042e5762000422600082620003ef565b6001810190506200040c565b5050565b601f8211156200047d576200044781620002f1565b620004528462000306565b8101602085101562000462578190505b6200047a620004718562000306565b8301826200040b565b50505b505050565b600082821c905092915050565b6000620004a26000198460080262000482565b1980831691505092915050565b6000620004bd83836200048f565b9150826002028217905092915050565b620004d88262000253565b67ffffffffffffffff811115620004f457620004f36200025e565b5b620005008254620002bc565b6200050d82828562000432565b600060209050601f83116001811462000545576000841562000530578287015190505b6200053c8582620004af565b865550620005ac565b601f1984166200055586620002f1565b60005b828110156200057f5784890151825560018201915060208501945060208101905062000558565b868310156200059f57848901516200059b601f8916826200048f565b8355505b6001600288020188555050505b505050505050565b600073ffffffffffffffffffffffffffffffffffffffff82169050919050565b6000620005e182620005b4565b9050919050565b620005f381620005d4565b82525050565b6000602082019050620006106000830184620005e8565b92915050565b61305680620006266000396000f3fe6080604052600436106101405760003560e01c8063715018a6116100b6578063c87b56dd1161006f578063c87b56dd1461047e578063e086e5ec146104bb578063e985e9c5146104d2578063eacabe141461050f578063f2fde38b1461054c578063f6326fb31461057557610140565b8063715018a6146103825780638da5cb5b1461039957806395d89b41146103c4578063a22cb465146103ef578063ab7573dd14610418578063b88d4fde1461045557610140565b806323b872dd1161010857806323b872dd1461025057806342842e0e14610279578063434a49a1146102a2578063479aa3c4146102df5780636352211e1461030857806370a082311461034557610140565b806301ffc9a71461014557806304b49c3a1461018257806306fdde03146101bf578063081812fc146101ea578063095ea7b314610227575b600080fd5b34801561015157600080fd5b5061016c600480360381019061016791906121b0565b61057f565b60405161017991906121f8565b60405180910390f35b34801561018e57600080fd5b506101a960048036038101906101a49190612359565b6105e0565b6040516101b691906121f8565b60405180910390f35b3480156101cb57600080fd5b506101d4610615565b6040516101e19190612421565b60405180910390f35b3480156101f657600080fd5b50610211600480360381019061020c9190612479565b6106a7565b60405161021e91906124e7565b60405180910390f35b34801561023357600080fd5b5061024e6004803603810190610249919061252e565b6106c3565b005b34801561025c57600080fd5b506102776004803603810190610272919061256e565b6106d9565b005b34801561028557600080fd5b506102a0600480360381019061029b919061256e565b6107db565b005b3480156102ae57600080fd5b506102c960048036038101906102c491906125c1565b6107fb565b6040516102d691906126ac565b60405180910390f35b3480156102eb57600080fd5b50610306600480360381019061030191906126ce565b610892565b005b34801561031457600080fd5b5061032f600480360381019061032a9190612479565b6108cc565b60405161033c91906124e7565b60405180910390f35b34801561035157600080fd5b5061036c600480360381019061036791906125c1565b6108de565b6040516103799190612739565b60405180910390f35b34801561038e57600080fd5b50610397610998565b005b3480156103a557600080fd5b506103ae6109ac565b6040516103bb91906124e7565b60405180910390f35b3480156103d057600080fd5b506103d96109d6565b6040516103e69190612421565b60405180910390f35b3480156103fb57600080fd5b5061041660048036038101906104119190612780565b610a68565b005b34801561042457600080fd5b5061043f600480360381019061043a91906125c1565b610a7e565b60405161044c9190612739565b60405180910390f35b34801561046157600080fd5b5061047c60048036038101906104779190612861565b610ac7565b005b34801561048a57600080fd5b506104a560048036038101906104a09190612479565b610ae4565b6040516104b29190612421565b60405180910390f35b3480156104c757600080fd5b506104d0610bf7565b005b3480156104de57600080fd5b506104f960048036038101906104f491906128e4565b610c55565b60405161050691906121f8565b60405180910390f35b34801561051b57600080fd5b50610536600480360381019061053191906126ce565b610ce9565b6040516105439190612739565b60405180910390f35b34801561055857600080fd5b50610573600480360381019061056e91906125c1565b610e34565b005b61057d610eba565b005b6000634906490660e01b7bffffffffffffffffffffffffffffffffffffffffffffffffffffffff1916827bffffffffffffffffffffffffffffffffffffffffffffffffffffffff191614806105d957506105d882610ebc565b5b9050919050565b6000600c826040516105f29190612960565b908152602001604051809103902060009054906101000a900460ff169050919050565b606060008054610624906129a6565b80601f0160208091040260200160405190810160405280929190818152602001828054610650906129a6565b801561069d5780601f106106725761010080835404028352916020019161069d565b820191906000526020600020905b81548152906001019060200180831161068057829003601f168201915b5050505050905090565b60006106b282610f9e565b506106bc82611026565b9050919050565b6106d582826106d0611063565b61106b565b5050565b600073ffffffffffffffffffffffffffffffffffffffff168273ffffffffffffffffffffffffffffffffffffffff160361074b5760006040517f64a0ae9200000000000000000000000000000000000000000000000000000000815260040161074291906124e7565b60405180910390fd5b600061075f838361075a611063565b61107d565b90508373ffffffffffffffffffffffffffffffffffffffff168173ffffffffffffffffffffffffffffffffffffffff16146107d5578382826040517f64283d7b0000000000000000000000000000000000000000000000000000000081526004016107cc939291906129d7565b60405180910390fd5b50505050565b6107f683838360405180602001604052806000815250610ac7565b505050565b6060600b60008373ffffffffffffffffffffffffffffffffffffffff1673ffffffffffffffffffffffffffffffffffffffff16815260200190815260200160002080548060200260200160405190810160405280929190818152602001828054801561088657602002820191906000526020600020905b815481526020019060010190808311610872575b50505050509050919050565b61089a611297565b60006008600081546108ab90612a3d565b91905081905590506108bd838261131e565b6108c7818361133c565b505050565b60006108d782610f9e565b9050919050565b60008073ffffffffffffffffffffffffffffffffffffffff168273ffffffffffffffffffffffffffffffffffffffff16036109515760006040517f89c62b6400000000000000000000000000000000000000000000000000000000815260040161094891906124e7565b60405180910390fd5b600360008373ffffffffffffffffffffffffffffffffffffffff1673ffffffffffffffffffffffffffffffffffffffff168152602001908152602001600020549050919050565b6109a0611297565b6109aa6000611398565b565b6000600760009054906101000a900473ffffffffffffffffffffffffffffffffffffffff16905090565b6060600180546109e5906129a6565b80601f0160208091040260200160405190810160405280929190818152602001828054610a11906129a6565b8015610a5e5780601f10610a3357610100808354040283529160200191610a5e565b820191906000526020600020905b815481529060010190602001808311610a4157829003601f168201915b5050505050905090565b610a7a610a73611063565b838361145e565b5050565b6000600a60008373ffffffffffffffffffffffffffffffffffffffff1673ffffffffffffffffffffffffffffffffffffffff168152602001908152602001600020549050919050565b610ad28484846106d9565b610ade848484846115cd565b50505050565b6060610aef82610f9e565b506000600660008481526020019081526020016000208054610b10906129a6565b80601f0160208091040260200160405190810160405280929190818152602001828054610b3c906129a6565b8015610b895780601f10610b5e57610100808354040283529160200191610b89565b820191906000526020600020905b815481529060010190602001808311610b6c57829003601f168201915b505050505090506000610b9a611784565b90506000815103610baf578192505050610bf2565b600082511115610be4578082604051602001610bcc929190612a85565b60405160208183030381529060405292505050610bf2565b610bed84611816565b925050505b919050565b610bff611297565b6000479050610c0c6109ac565b73ffffffffffffffffffffffffffffffffffffffff166108fc829081150290604051600060405180830381858888f19350505050158015610c51573d6000803e3d6000fd5b5050565b6000600560008473ffffffffffffffffffffffffffffffffffffffff1673ffffffffffffffffffffffffffffffffffffffff16815260200190815260200160002060008373ffffffffffffffffffffffffffffffffffffffff1673ffffffffffffffffffffffffffffffffffffffff16815260200190815260200160002060009054906101000a900460ff16905092915050565b6000600c82604051610cfb9190612960565b908152602001604051809103902060009054906101000a900460ff1615610d57576040517f08c379a0000000000000000000000000000000000000000000000000000000008152600401610d4e90612af5565b60405180910390fd5b6000600860008154610d6890612a3d565b9190508190559050610d7a848261187f565b610d84818461133c565b610d8d84611978565b600b60008573ffffffffffffffffffffffffffffffffffffffff1673ffffffffffffffffffffffffffffffffffffffff1681526020019081526020016000208190806001815401808255809150506001900390600052602060002001600090919091909150556001600c84604051610e059190612960565b908152602001604051809103902060006101000a81548160ff0219169083151502179055508091505092915050565b610e3c611297565b600073ffffffffffffffffffffffffffffffffffffffff168173ffffffffffffffffffffffffffffffffffffffff1603610eae5760006040517f1e4fbdf7000000000000000000000000000000000000000000000000000000008152600401610ea591906124e7565b60405180910390fd5b610eb781611398565b50565b565b60007f80ac58cd000000000000000000000000000000000000000000000000000000007bffffffffffffffffffffffffffffffffffffffffffffffffffffffff1916827bffffffffffffffffffffffffffffffffffffffffffffffffffffffff19161480610f8757507f5b5e139f000000000000000000000000000000000000000000000000000000007bffffffffffffffffffffffffffffffffffffffffffffffffffffffff1916827bffffffffffffffffffffffffffffffffffffffffffffffffffffffff1916145b80610f975750610f9682611b16565b5b9050919050565b600080610faa83611b80565b9050600073ffffffffffffffffffffffffffffffffffffffff168173ffffffffffffffffffffffffffffffffffffffff160361101d57826040517f7e2732890000000000000000000000000000000000000000000000000000000081526004016110149190612739565b60405180910390fd5b80915050919050565b60006004600083815260200190815260200160002060009054906101000a900473ffffffffffffffffffffffffffffffffffffffff169050919050565b600033905090565b6110788383836001611bbd565b505050565b60008061108984611b80565b9050600073ffffffffffffffffffffffffffffffffffffffff168373ffffffffffffffffffffffffffffffffffffffff16146110cb576110ca818486611d82565b5b600073ffffffffffffffffffffffffffffffffffffffff168173ffffffffffffffffffffffffffffffffffffffff161461115c5761110d600085600080611bbd565b6001600360008373ffffffffffffffffffffffffffffffffffffffff1673ffffffffffffffffffffffffffffffffffffffff168152602001908152602001600020600082825403925050819055505b600073ffffffffffffffffffffffffffffffffffffffff168573ffffffffffffffffffffffffffffffffffffffff16146111df576001600360008773ffffffffffffffffffffffffffffffffffffffff1673ffffffffffffffffffffffffffffffffffffffff168152602001908152602001600020600082825401925050819055505b846002600086815260200190815260200160002060006101000a81548173ffffffffffffffffffffffffffffffffffffffff021916908373ffffffffffffffffffffffffffffffffffffffff160217905550838573ffffffffffffffffffffffffffffffffffffffff168273ffffffffffffffffffffffffffffffffffffffff167fddf252ad1be2c89b69c2b068fc378daa952ba7f163c4a11628f55a4df523b3ef60405160405180910390a4809150509392505050565b61129f611063565b73ffffffffffffffffffffffffffffffffffffffff166112bd6109ac565b73ffffffffffffffffffffffffffffffffffffffff161461131c576112e0611063565b6040517f118cdaa700000000000000000000000000000000000000000000000000000000815260040161131391906124e7565b60405180910390fd5b565b611338828260405180602001604052806000815250611e46565b5050565b8060066000848152602001908152602001600020908161135c9190612cc1565b507ff8e1a15aba9398e019f0b49df1a4fde98ee17ae345cb5f6b5e2c27f5033e8ce78260405161138c9190612739565b60405180910390a15050565b6000600760009054906101000a900473ffffffffffffffffffffffffffffffffffffffff16905081600760006101000a81548173ffffffffffffffffffffffffffffffffffffffff021916908373ffffffffffffffffffffffffffffffffffffffff1602179055508173ffffffffffffffffffffffffffffffffffffffff168173ffffffffffffffffffffffffffffffffffffffff167f8be0079c531659141344cd1fd0a4f28419497f9722a3daafe3b4186f6b6457e060405160405180910390a35050565b600073ffffffffffffffffffffffffffffffffffffffff168273ffffffffffffffffffffffffffffffffffffffff16036114cf57816040517f5b08ba180000000000000000000000000000000000000000000000000000000081526004016114c691906124e7565b60405180910390fd5b80600560008573ffffffffffffffffffffffffffffffffffffffff1673ffffffffffffffffffffffffffffffffffffffff16815260200190815260200160002060008473ffffffffffffffffffffffffffffffffffffffff1673ffffffffffffffffffffffffffffffffffffffff16815260200190815260200160002060006101000a81548160ff0219169083151502179055508173ffffffffffffffffffffffffffffffffffffffff168373ffffffffffffffffffffffffffffffffffffffff167f17307eab39ab6107e8899845ad3d59bd9653f200f220920489ca2b5937696c31836040516115c091906121f8565b60405180910390a3505050565b60008373ffffffffffffffffffffffffffffffffffffffff163b111561177e578273ffffffffffffffffffffffffffffffffffffffff1663150b7a02611611611063565b8685856040518563ffffffff1660e01b81526004016116339493929190612de8565b6020604051808303816000875af192505050801561166f57506040513d601f19601f8201168201806040525081019061166c9190612e49565b60015b6116f3573d806000811461169f576040519150601f19603f3d011682016040523d82523d6000602084013e6116a4565b606091505b5060008151036116eb57836040517f64a0ae920000000000000000000000000000000000000000000000000000000081526004016116e291906124e7565b60405180910390fd5b805181602001fd5b63150b7a0260e01b7bffffffffffffffffffffffffffffffffffffffffffffffffffffffff1916817bffffffffffffffffffffffffffffffffffffffffffffffffffffffff19161461177c57836040517f64a0ae9200000000000000000000000000000000000000000000000000000000815260040161177391906124e7565b60405180910390fd5b505b50505050565b606060098054611793906129a6565b80601f01602080910402602001604051908101604052809291908181526020018280546117bf906129a6565b801561180c5780601f106117e15761010080835404028352916020019161180c565b820191906000526020600020905b8154815290600101906020018083116117ef57829003601f168201915b5050505050905090565b606061182182610f9e565b50600061182c611784565b9050600081511161184c5760405180602001604052806000815250611877565b8061185684611e62565b604051602001611867929190612a85565b6040516020818303038152906040525b915050919050565b600073ffffffffffffffffffffffffffffffffffffffff168273ffffffffffffffffffffffffffffffffffffffff16036118f15760006040517f64a0ae920000000000000000000000000000000000000000000000000000000081526004016118e891906124e7565b60405180910390fd5b60006118ff8383600061107d565b9050600073ffffffffffffffffffffffffffffffffffffffff168173ffffffffffffffffffffffffffffffffffffffff16146119735760006040517f73c6ac6e00000000000000000000000000000000000000000000000000000000815260040161196a91906124e7565b60405180910390fd5b505050565b600060649050804710156119c1576040517f08c379a00000000000000000000000000000000000000000000000000000000081526004016119b890612ec2565b60405180910390fd5b80600a60008473ffffffffffffffffffffffffffffffffffffffff1673ffffffffffffffffffffffffffffffffffffffff1681526020019081526020016000206000828254611a109190612ee2565b9250508190555060008273ffffffffffffffffffffffffffffffffffffffff1682604051611a3d90612f47565b60006040518083038185875af1925050503d8060008114611a7a576040519150601f19603f3d011682016040523d82523d6000602084013e611a7f565b606091505b5050905080611ac3576040517f08c379a0000000000000000000000000000000000000000000000000000000008152600401611aba90612fa8565b60405180910390fd5b8273ffffffffffffffffffffffffffffffffffffffff167fe366ef68d2c0620e9e4c5074fd7ad0ce6739b65287f9c2d09b7d002da556879b83604051611b099190612739565b60405180910390a2505050565b60007f01ffc9a7000000000000000000000000000000000000000000000000000000007bffffffffffffffffffffffffffffffffffffffffffffffffffffffff1916827bffffffffffffffffffffffffffffffffffffffffffffffffffffffff1916149050919050565b60006002600083815260200190815260200160002060009054906101000a900473ffffffffffffffffffffffffffffffffffffffff169050919050565b8080611bf65750600073ffffffffffffffffffffffffffffffffffffffff168273ffffffffffffffffffffffffffffffffffffffff1614155b15611d2a576000611c0684610f9e565b9050600073ffffffffffffffffffffffffffffffffffffffff168373ffffffffffffffffffffffffffffffffffffffff1614158015611c7157508273ffffffffffffffffffffffffffffffffffffffff168173ffffffffffffffffffffffffffffffffffffffff1614155b8015611c845750611c828184610c55565b155b15611cc657826040517fa9fbf51f000000000000000000000000000000000000000000000000000000008152600401611cbd91906124e7565b60405180910390fd5b8115611d2857838573ffffffffffffffffffffffffffffffffffffffff168273ffffffffffffffffffffffffffffffffffffffff167f8c5be1e5ebec7d5bd14f71427d1e84f3dd0314c0f7b2291e5b200ac8c7c3b92560405160405180910390a45b505b836004600085815260200190815260200160002060006101000a81548173ffffffffffffffffffffffffffffffffffffffff021916908373ffffffffffffffffffffffffffffffffffffffff16021790555050505050565b611d8d838383611f30565b611e4157600073ffffffffffffffffffffffffffffffffffffffff168373ffffffffffffffffffffffffffffffffffffffff1603611e0257806040517f7e273289000000000000000000000000000000000000000000000000000000008152600401611df99190612739565b60405180910390fd5b81816040517f177e802f000000000000000000000000000000000000000000000000000000008152600401611e38929190612fc8565b60405180910390fd5b505050565b611e50838361187f565b611e5d60008484846115cd565b505050565b606060006001611e7184611ff1565b01905060008167ffffffffffffffff811115611e9057611e8f61222e565b5b6040519080825280601f01601f191660200182016040528015611ec25781602001600182028036833780820191505090505b509050600082602001820190505b600115611f25578080600190039150507f3031323334353637383961626364656600000000000000000000000000000000600a86061a8153600a8581611f1957611f18612ff1565b5b04945060008503611ed0575b819350505050919050565b60008073ffffffffffffffffffffffffffffffffffffffff168373ffffffffffffffffffffffffffffffffffffffff1614158015611fe857508273ffffffffffffffffffffffffffffffffffffffff168473ffffffffffffffffffffffffffffffffffffffff161480611fa95750611fa88484610c55565b5b80611fe757508273ffffffffffffffffffffffffffffffffffffffff16611fcf83611026565b73ffffffffffffffffffffffffffffffffffffffff16145b5b90509392505050565b600080600090507a184f03e93ff9f4daa797ed6e38ed64bf6a1f010000000000000000831061204f577a184f03e93ff9f4daa797ed6e38ed64bf6a1f010000000000000000838161204557612044612ff1565b5b0492506040810190505b6d04ee2d6d415b85acef8100000000831061208c576d04ee2d6d415b85acef8100000000838161208257612081612ff1565b5b0492506020810190505b662386f26fc1000083106120bb57662386f26fc1000083816120b1576120b0612ff1565b5b0492506010810190505b6305f5e10083106120e4576305f5e10083816120da576120d9612ff1565b5b0492506008810190505b61271083106121095761271083816120ff576120fe612ff1565b5b0492506004810190505b6064831061212c576064838161212257612121612ff1565b5b0492506002810190505b600a831061213b576001810190505b80915050919050565b6000604051905090565b600080fd5b600080fd5b60007fffffffff0000000000000000000000000000000000000000000000000000000082169050919050565b61218d81612158565b811461219857600080fd5b50565b6000813590506121aa81612184565b92915050565b6000602082840312156121c6576121c561214e565b5b60006121d48482850161219b565b91505092915050565b60008115159050919050565b6121f2816121dd565b82525050565b600060208201905061220d60008301846121e9565b92915050565b600080fd5b600080fd5b6000601f19601f8301169050919050565b7f4e487b7100000000000000000000000000000000000000000000000000000000600052604160045260246000fd5b6122668261221d565b810181811067ffffffffffffffff821117156122855761228461222e565b5b80604052505050565b6000612298612144565b90506122a4828261225d565b919050565b600067ffffffffffffffff8211156122c4576122c361222e565b5b6122cd8261221d565b9050602081019050919050565b82818337600083830152505050565b60006122fc6122f7846122a9565b61228e565b90508281526020810184848401111561231857612317612218565b5b6123238482856122da565b509392505050565b600082601f8301126123405761233f612213565b5b81356123508482602086016122e9565b91505092915050565b60006020828403121561236f5761236e61214e565b5b600082013567ffffffffffffffff81111561238d5761238c612153565b5b6123998482850161232b565b91505092915050565b600081519050919050565b600082825260208201905092915050565b60005b838110156123dc5780820151818401526020810190506123c1565b60008484015250505050565b60006123f3826123a2565b6123fd81856123ad565b935061240d8185602086016123be565b6124168161221d565b840191505092915050565b6000602082019050818103600083015261243b81846123e8565b905092915050565b6000819050919050565b61245681612443565b811461246157600080fd5b50565b6000813590506124738161244d565b92915050565b60006020828403121561248f5761248e61214e565b5b600061249d84828501612464565b91505092915050565b600073ffffffffffffffffffffffffffffffffffffffff82169050919050565b60006124d1826124a6565b9050919050565b6124e1816124c6565b82525050565b60006020820190506124fc60008301846124d8565b92915050565b61250b816124c6565b811461251657600080fd5b50565b60008135905061252881612502565b92915050565b600080604083850312156125455761254461214e565b5b600061255385828601612519565b925050602061256485828601612464565b9150509250929050565b6000806000606084860312156125875761258661214e565b5b600061259586828701612519565b93505060206125a686828701612519565b92505060406125b786828701612464565b9150509250925092565b6000602082840312156125d7576125d661214e565b5b60006125e584828501612519565b91505092915050565b600081519050919050565b600082825260208201905092915050565b6000819050602082019050919050565b61262381612443565b82525050565b6000612635838361261a565b60208301905092915050565b6000602082019050919050565b6000612659826125ee565b61266381856125f9565b935061266e8361260a565b8060005b8381101561269f5781516126868882612629565b975061269183612641565b925050600181019050612672565b5085935050505092915050565b600060208201905081810360008301526126c6818461264e565b905092915050565b600080604083850312156126e5576126e461214e565b5b60006126f385828601612519565b925050602083013567ffffffffffffffff81111561271457612713612153565b5b6127208582860161232b565b9150509250929050565b61273381612443565b82525050565b600060208201905061274e600083018461272a565b92915050565b61275d816121dd565b811461276857600080fd5b50565b60008135905061277a81612754565b92915050565b600080604083850312156127975761279661214e565b5b60006127a585828601612519565b92505060206127b68582860161276b565b9150509250929050565b600067ffffffffffffffff8211156127db576127da61222e565b5b6127e48261221d565b9050602081019050919050565b60006128046127ff846127c0565b61228e565b9050828152602081018484840111156128205761281f612218565b5b61282b8482856122da565b509392505050565b600082601f83011261284857612847612213565b5b81356128588482602086016127f1565b91505092915050565b6000806000806080858703121561287b5761287a61214e565b5b600061288987828801612519565b945050602061289a87828801612519565b93505060406128ab87828801612464565b925050606085013567ffffffffffffffff8111156128cc576128cb612153565b5b6128d887828801612833565b91505092959194509250565b600080604083850312156128fb576128fa61214e565b5b600061290985828601612519565b925050602061291a85828601612519565b9150509250929050565b600081905092915050565b600061293a826123a2565b6129448185612924565b93506129548185602086016123be565b80840191505092915050565b600061296c828461292f565b915081905092915050565b7f4e487b7100000000000000000000000000000000000000000000000000000000600052602260045260246000fd5b600060028204905060018216806129be57607f821691505b6020821081036129d1576129d0612977565b5b50919050565b60006060820190506129ec60008301866124d8565b6129f9602083018561272a565b612a0660408301846124d8565b949350505050565b7f4e487b7100000000000000000000000000000000000000000000000000000000600052601160045260246000fd5b6000612a4882612443565b91507fffffffffffffffffffffffffffffffffffffffffffffffffffffffffffffffff8203612a7a57612a79612a0e565b5b600182019050919050565b6000612a91828561292f565b9150612a9d828461292f565b91508190509392505050565b7f546f6b656e20616c726561647920657869737473000000000000000000000000600082015250565b6000612adf6014836123ad565b9150612aea82612aa9565b602082019050919050565b60006020820190508181036000830152612b0e81612ad2565b9050919050565b60008190508160005260206000209050919050565b60006020601f8301049050919050565b600082821b905092915050565b600060088302612b777fffffffffffffffffffffffffffffffffffffffffffffffffffffffffffffffff82612b3a565b612b818683612b3a565b95508019841693508086168417925050509392505050565b6000819050919050565b6000612bbe612bb9612bb484612443565b612b99565b612443565b9050919050565b6000819050919050565b612bd883612ba3565b612bec612be482612bc5565b848454612b47565b825550505050565b600090565b612c01612bf4565b612c0c818484612bcf565b505050565b5b81811015612c3057612c25600082612bf9565b600181019050612c12565b5050565b601f821115612c7557612c4681612b15565b612c4f84612b2a565b81016020851015612c5e578190505b612c72612c6a85612b2a565b830182612c11565b50505b505050565b600082821c905092915050565b6000612c9860001984600802612c7a565b1980831691505092915050565b6000612cb18383612c87565b9150826002028217905092915050565b612cca826123a2565b67ffffffffffffffff811115612ce357612ce261222e565b5b612ced82546129a6565b612cf8828285612c34565b600060209050601f831160018114612d2b5760008415612d19578287015190505b612d238582612ca5565b865550612d8b565b601f198416612d3986612b15565b60005b82811015612d6157848901518255600182019150602085019450602081019050612d3c565b86831015612d7e5784890151612d7a601f891682612c87565b8355505b6001600288020188555050505b505050505050565b600081519050919050565b600082825260208201905092915050565b6000612dba82612d93565b612dc48185612d9e565b9350612dd48185602086016123be565b612ddd8161221d565b840191505092915050565b6000608082019050612dfd60008301876124d8565b612e0a60208301866124d8565b612e17604083018561272a565b8181036060830152612e298184612daf565b905095945050505050565b600081519050612e4381612184565b92915050565b600060208284031215612e5f57612e5e61214e565b5b6000612e6d84828501612e34565b91505092915050565b7f4e6f7420656e6f75676820457468657220746f20726577617264207573657200600082015250565b6000612eac601f836123ad565b9150612eb782612e76565b602082019050919050565b60006020820190508181036000830152612edb81612e9f565b9050919050565b6000612eed82612443565b9150612ef883612443565b9250828201905080821115612f1057612f0f612a0e565b5b92915050565b600081905092915050565b50565b6000612f31600083612f16565b9150612f3c82612f21565b600082019050919050565b6000612f5282612f24565b9150819050919050565b7f4661696c656420746f2073656e64207765690000000000000000000000000000600082015250565b6000612f926012836123ad565b9150612f9d82612f5c565b602082019050919050565b60006020820190508181036000830152612fc181612f85565b9050919050565b6000604082019050612fdd60008301856124d8565b612fea602083018461272a565b9392505050565b7f4e487b7100000000000000000000000000000000000000000000000000000000600052601260045260246000fdfea264697066735822122033248f4b43c898bbe4410b335a5bd62fdea949ce624c05933f67e359e3fb1cb164736f6c63430008180033",
  "linkReferences": {},
  "deployedLinkReferences": {}
}